{
	"data": {
		"bytecode": {
			"linkReferences": {},
			"object": "608060405260008055348015601357600080fd5b506098806100226000396000f3fe6080604052600436106039576000357c010000000000000000000000000000000000000000000000000000000090048063267c68e014603e575b600080fd5b348015604957600080fd5b5060506066565b6040518082815260200191505060405180910390f35b6000548156fea165627a7a7230582036c609cb7981b225b69b86703c652913f259e99daf376b8681e5e5d5f3205dd90029",
			"opcodes": "PUSH1 0x80 PUSH1 0x40 MSTORE PUSH1 0x0 DUP1 SSTORE CALLVALUE DUP1 ISZERO PUSH1 0x13 JUMPI PUSH1 0x0 DUP1 REVERT JUMPDEST POP PUSH1 0x98 DUP1 PUSH2 0x22 PUSH1 0x0 CODECOPY PUSH1 0x0 RETURN INVALID PUSH1 0x80 PUSH1 0x40 MSTORE PUSH1 0x4 CALLDATASIZE LT PUSH1 0x39 JUMPI PUSH1 0x0 CALLDATALOAD PUSH29 0x100000000000000000000000000000000000000000000000000000000 SWAP1 DIV DUP1 PUSH4 0x267C68E0 EQ PUSH1 0x3E JUMPI JUMPDEST PUSH1 0x0 DUP1 REVERT JUMPDEST CALLVALUE DUP1 ISZERO PUSH1 0x49 JUMPI PUSH1 0x0 DUP1 REVERT JUMPDEST POP PUSH1 0x50 PUSH1 0x66 JUMP JUMPDEST PUSH1 0x40 MLOAD DUP1 DUP3 DUP2 MSTORE PUSH1 0x20 ADD SWAP2 POP POP PUSH1 0x40 MLOAD DUP1 SWAP2 SUB SWAP1 RETURN JUMPDEST PUSH1 0x0 SLOAD DUP2 JUMP INVALID LOG1 PUSH6 0x627A7A723058 KECCAK256 CALLDATASIZE 0xc6 MULMOD 0xcb PUSH26 0x81B225B69B86703C652913F259E99DAF376B8681E5E5D5F3205D 0xd9 STOP 0x29 "
		},
		"gasEstimates": {
			"creation": {
				"codeDepositCost": "30400",
				"executionCost": "5087",
				"totalCost": "35487"
			},
			"external": {
				"peopleCount()": "388"
			}
		},
		"methodIdentifiers": {
			"peopleCount()": "267c68e0"
		}
	},
	"abi": [
		{
			"constant": true,
			"inputs": [],
			"name": "peopleCount",
			"outputs": [
				{
					"name": "",
					"type": "uint256"
				}
			],
			"payable": false,
			"stateMutability": "view",
			"type": "function"
		}
	]
}